S00E00006865617465722E737265639D
S11300000C942A000C9423030C9447000C9447008E
S11300100C9447000C9453050C9447000C9447002F
S11300200C9447000C9447000C9447000C949F04D4
S11300300C9447000C9447000C9447000C94470020
S11300400C9447000C9447000C9447000C94470010
S11300500C94470011241FBECFE5D8E0DEBFCDBF0E
S113006010E0A0E6B0E0ECE7FEE002C005900D92DF
S1130070A23AB107D9F720E0A2EAB0E001C01D928C
S1130080AC3BB207E1F70E9473030C943C070C9459
S1130090000087B1806887B987B1806487B986B169
S11300A0816086B986B1826086B986B1846086B97A
S11300B086B1806886B9089597B1907E8F71892B37
S11300C087B986B1806486B9349BFECF86B18061DE
S11300D086B924B185B190E0982F8827822B0895A2
S11300E060E088E00E94B10160E08EE10E94B1010D
S11300F060E08AE10E94B10108950E94160108950A
S1130100882331F0813039F482E00E949F030895FE
S113011082E00E94A303089561E082E00E94B1019D
S113012082E00E9480000895982F96959695969562
S11301308770913021F130F09230F1F1933009F46D
S113014058C00895613069F44BB321E030E0B9013F
S113015002C0660F771F8A95E2F7CB01842B8BBB15
S113016008954BB321E030E0B90102C0660F771F58
S11301708A95E2F7CB01809584238BBB0895613087
S113018069F448B321E030E0B90102C0660F771F7B
S11301908A95E2F7CB01842B88BB089548B321E00C
S11301A030E0B90102C0660F771F8A95E2F7CB01F0
S11301B08095842388BB0895613069F445B321E0B8
S11301C030E0B90102C0660F771F8A95E2F7CB01D0
S11301D0842B85BB089545B321E030E0B90102C00A
S11301E0660F771F8A95E2F7CB018095842385BB40
S11301F00895613069F442B321E030E0B90102C0EE
S1130200660F771F8A95E2F7CB01842B82BB089592
S113021042B321E030E0B90102C0660F771F8A952E
S1130220E2F7CB018095842382BB0895982F96959D
S113023096959695482F4770913081F028F092302A
S1130240B9F09330F9F028C099B3892F90E002C037
S1130250959587954A95E2F78170089526B330E025
S1130260C90102C0959587954A95E2F78170089572
S113027023B330E0C90102C0959587954A95E2F70A
S11302808170089520B330E0C90102C09595879527
S11302904A95E2F78170089580E00895982F969525
S11302A0969596958770913099F028F09230E9F000
S11302B0933041F108954BB321E030E0B90102C01D
S11302C0660F771F8A95E2F7CB0184278BBB0895CD
S11302D048B321E030E0B90102C0660F771F8A9568
S11302E0E2F7CB01842788BB089545B321E030E0D1
S11302F0B90102C0660F771F8A95E2F7CB01842704
S113030085BB089542B321E030E0B90102C0660F15
S1130310771F8A95E2F7CB01842782BB0895813049
S113032041F028F0823039F0833039F008C08BB3C3
S1130330089588B3089585B3089582B3089580E03D
S11303400895813041F028F0823039F0833039F05B
S113035008956BBB089568BB089565BB089562BB9F
S11303600895982F9695969596958770913021F1DA
S113037030F09230F1F1933009F458C008956130AF
S113038069F44AB321E030E0B90102C0660F771F77
S11303908A95E2F7CB01842B8ABB08954AB321E006
S11303A030E0B90102C0660F771F8A95E2F7CB01EE
S11303B0809584238ABB0895613069F447B321E0B2
S11303C030E0B90102C0660F771F8A95E2F7CB01CE
S11303D0842B87BB089547B321E030E0B90102C004
S11303E0660F771F8A95E2F7CB018095842387BB3C
S11303F00895613069F444B321E030E0B90102C0EA
S1130400660F771F8A95E2F7CB01842B84BB08958E
S113041044B321E030E0B90102C0660F771F8A952A
S1130420E2F7CB018095842384BB0895613069F49D
S113043041B321E030E0B90102C0660F771F8A950D
S1130440E2F7CB01842B81BB089541B321E030E076
S1130450B90102C0660F771F8A95E2F7CB01809538
S1130460842381BB089580E0A0C0982F969596952B
S11304709695282F2770913061F138F0923009F465
S11304804CC0933009F46DC08FC0E82FF0E0EE0F3C
S1130490FF1FE05AFF4F9081913069F49AB341E015
S11304A050E0BA0102C0660F771F2A95E2F79B015C
S11304B0292B2ABB79C09AB341E050E0BA0102C0AB
S11304C0660F771F2A95E2F79B01209529232ABB03
S11304D06BC0E82FF0E0EE0FFF1FE05AFF4F908152
S11304E0913069F497B341E050E0BA0102C0660F5D
S11304F0771F2A95E2F79B01292B27BB55C097B399
S113050041E050E0BA0102C0660F771F2A95E2F776
S11305109B012095292327BB47C0E82FF0E0EE0F6D
S1130520FF1FE05AFF4F9081913069F494B341E08A
S113053050E0BA0102C0660F771F2A95E2F79B01CB
S1130540292B24BB31C094B341E050E0BA0102C06E
S1130550660F771F2A95E2F79B012095292324BB78
S113056023C0E82FF0E0EE0FFF1FE05AFF4F908109
S1130570913069F491B341E050E0BA0102C0660FD2
S1130580771F2A95E2F79B01292B21BB0DC091B35C
S113059041E050E0BA0102C0660F771F2A95E2F7E6
S11305A09B012095292321BB8F5F803208F45DCF06
S11305B00895E199FECF8FBB9EBB6DBB8CB3846065
S11305C08CBB8CB382608CBB0895E199FECF8FBB4A
S11305D09EBB8CB381608CBB8DB30895813041F098
S11305E018F0823049F008958BB780648BBF08956A
S11305F08BB780688BBF08958BB78BBF089581300C
S113060041F018F0823071F0089585B7682B65BF0A
S1130610089585B770E0660F771F660F771F682B04
S113062065BF0895633021F484B78F7B84BF089538
S1130630623019F484B7806484BF08959093A30052
S11306408093A20008951F920F920FB60F92112467
S11306502F933F934F935F936F937F938F939F93C6
S1130660AF93BF93EF93FF93E091A200F091A300A7
S11306700995FF91EF91BF91AF919F918F917F91D8
S11306806F915F914F913F912F910F900FBE0F90FB
S11306901F9018958FB780688FBF089561E082E13D
S11306A00E94B10161E087E10E94B10161E08BE148
S11306B00E94B101089561E00E949400089560E0F1
S11306C00E94940008950E944E0108950E944900DA
S11306D008950E945C0099230CF4039695958795E0
S11306E09595879508950E9423060E940D040E9403
S11306F01B04FDCF882331F0813039F483E10E945B
S11307009F03089583E10E94A303089561E083E1B8
S11307100E94B10182E00E947A03089561E082E0C0
S11307200E94B10161E083E10E94B10160E082E0D6
S11307300E94940060E083E10E949400089561E0C7
S11307400E949400089560E00E949400089561E07E
S11307508AE00E94B10161E089E00E94B10108953C
S11307601F93CF93DF93182FD62FC0E037C080E0BC
S11307700E948F0190E1199F900111248F70682FBE
S1130780622B80E00E94A10160E08AE00E94940054
S11307908FE891E00197F1F700C0000061E08AE082
S11307A00E94940081E00E948F0190E1D99F900102
S11307B011248F70682F622B81E00E94A10160E0F8
S11307C089E00E9494008FE891E00197F1F700C05E
S11307D0000061E089E00E949400CF5FC83C38F2D9
S11307E0DF91CF911F9108958091A400813039F455
S11307F08093A5001092A4000E94290408958111F9
S11308000BC01092A50081E08093A40060E080E01A
S11308100E94B0030E94230708951092A50084EF5C
S113082093E00E941E0362E080E00E94FF0280E0E9
S11308300E94EE0208958091A500882319F081306A
S113084029F0089587E10E945F0308950E945906E4
S11308500895813051F483B7816083BF83B78D7F5E
S113086083BF83B78B7F83BF0895823051F483B7EE
S11308708E7F83BF83B7826083BF83B78B7F83BF41
S11308800895833051F483B7816083BF83B7826056
S113089083BF83B78B7F83BF0895843051F483B7BC
S11308A08E7F83BF83B78D7F83BF83B7846083BF0D
S11308B00895853051F483B7816083BF83B78D7FFA
S11308C083BF83B7846083BF0895863051F483B7B0
S11308D08E7F83BF83B7826083BF83B7846083BF07
S11308E00895863049F483B7816083BF83B78260FB
S11308F083BF83B7846083BF0895CF93C42F93B716
S11309009F7B93BF93B7977F93BF62BF0E942904D5
S1130910C13021F489B7816089BF05C0C11103C00A
S113092089B78E7F89BFCF91089583B78E7F83BFA8
S113093083B78D7F83BF83B78B7F83BF08951F9257
S11309400F920FB60F9211242F933F934F935F93FF
S11309506F937F938F939F93AF93BF93EF93FF9383
S11309608091A8009091A90001969093A90080938A
S1130970A800E091AC00F091AD00309741F08A36C8
S1130980984129F409951092A9001092A800FF91AA
S1130990EF91BF91AF919F918F917F916F915F91F3
S11309A04F913F912F910F900FBE0F901F9018956C
S11309B09093AD008093AC000895813051F485B5D7
S11309C0816085BD85B58D7F85BD85B58B7F85BDF2
S11309D00895823051F485B58E7F85BD85B58260DA
S11309E085BD85B58B7F85BD0895833051F485B56C
S11309F0816085BD85B5826085BD85B58B7F85BDEC
S1130A000895843051F485B58E7F85BD85B58D7F7D
S1130A1085BD85B5846085BD0895853051F485B55F
S1130A20816085BD85B58D7F85BD85B5846085BDB7
S1130A300895863051F485B58E7F85BD85B5826075
S1130A4085BD85B5846085BD0895863049F485B536
S1130A50816085BD85B5826085BD85B5846085BDB1
S1130A600895CF93C42F95B5977F95BD95B59F7B7A
S1130A7095BD64BD0E94DD04C13021F489B7806452
S1130A8089BF05C0C11103C089B78F7B89BFCF91CE
S1130A90089585B58E7F85BD85B58D7F85BD85B56A
S1130AA08B7F85BD08951F920F920FB60F9211246C
S1130AB02F933F934F935F936F937F938F939F9362
S1130AC0AF93BF93EF93FF938091A6009091A700FB
S1130AD001969093A7008093A600E091AA00F0915C
S1130AE0AB00309741F08432944F29F40995109269
S1130AF0A7001092A600FF91EF91BF91AF919F9133
S1130B008F917F916F915F914F913F912F910F90B2
S1130B100FBE0F901F9018959093AB008093AA007E
S1130B2008958091B1008F5F8093B10080E00E94AE
S1130B3069038093BA009091BA008091B00098172D
S1130B4021F08091BB00882321F08091B300813093
S1130B50E1F48091BA002DEC829F612D11246695F9
S1130B6066956695660F962F990F990F690F861BE8
S1130B70682F8091BA00829F812D112486958695D5
S1130B8086950E94B0031092B3008091BA008093BE
S1130B90B0008091BA002091AE003091AF00280FD0
S1130BA0311D3093AF002093AE008091B1008A30A4
S1130BB091F4ADECBCEC0E942D0796958795969523
S1130BC08795969587958093B9001092B1001092FD
S1130BD0AF001092AE0008958091B500813021F4E9
S1130BE087E10E94630308958091B400813051F538
S1130BF08091B7008F5F8093B7008091A00081300F
S1130C00C9F42091B8008DEC289F812D1124682F00
S1130C10669566956695660F962F990F990F690FDD
S1130C20261B622F8695869586950E94B0031092A6
S1130C30A0000895811106C060E00E94B00381E025
S1130C408093A00008951092BB008CE38093B800B9
S1130C500E9433020E9470000E944E030E94A70368
S1130C600E948E030E9466030E948C000E948603E9
S1130C700E944A0381E995E00E94D8048CEE95E035
S1130C800E948C0541E060E080E00E947D0441E028
S1130C9060E080E00E94310580E090E00E94E5027F
S1130CA08F3F31F080E090E00E94E5028093B8002D
S1130CB00895CF938091BB00882321F0813009F4FB
S1130CC060C0BFC02091B80030E08091B90090E0CE
S1130CD0A901481B590B4530510591F481E00E944C
S1130CE0800080E00E947A038091A100813069F540
S1130CF00E94DD041092A10081E08093B50025C01C
S1130D00821B930B059789F480E00E94800081E0A8
S1130D100E947A030E9449051092B50081E08093F5
S1130D20A10087E10E945B0310C00E944905109254
S1130D30B50081E08093A10080E00E94800080E003
S1130D400E947A0387E10E945F0388E00E947D008D
S1130D50813031F08EE10E947D00813009F071C054
S1130D600E9449051092B500C1E0C093A10087E13B
S1130D700E945F03C093BB00C093B600C093B2004F
S1130D8060C08091B600813039F40E94DD0481E0B6
S1130D908093B4001092B6008091B200813061F467
S1130DA088E00E947D008130D9F38EE10E947D00AD
S1130DB08130B1F31092B20088E00E947D0081304E
S1130DC089F46091B8006B3468F46B5F6093B80089
S1130DD080E090E00E94D90281E08093B2001092FA
S1130DE0B7002FC08EE10E947D00813089F46091AC
S1130DF0B800643268F065506093B80080E090E019
S1130E000E94D90281E08093B2001092B70019C009
S1130E1088E00E947D00811114C08EE10E947D0053
S1130E2081110FC08091B700853059F40E944905A3
S1130E301092BB001092B4001092B70081E080932E
S1130E40B300CF9108950E9495040E94490581E062
S1130E508093B6008093A1000895A29FB001B39F30
S1130E60C001A39F700D811D1124911DB29F700DAF
S10F0E70811D1124911D0895F894FFCFFA
S1130E7C0101010101010101010101010101010152
S1130E8C0001010101010101010101010101010143
S1130E9C0101000001010101010101010101010134
S1130EAC010101010001010100000000000000002B
S1050EBC01012E
S9030000FC
